{
	"contracts/FundMe.sol": {
		"FundMe": {
			"abi": [
				{
					"inputs": [],
					"name": "fund",
					"outputs": [],
					"stateMutability": "payable",
					"type": "function"
				},
				{
					"inputs": [
						{
							"internalType": "uint256",
							"name": "ethAmount",
							"type": "uint256"
						}
					],
					"name": "getConversionRate",
					"outputs": [
						{
							"internalType": "uint256",
							"name": "",
							"type": "uint256"
						}
					],
					"stateMutability": "view",
					"type": "function"
				},
				{
					"inputs": [],
					"name": "getPrice",
					"outputs": [
						{
							"internalType": "uint256",
							"name": "",
							"type": "uint256"
						}
					],
					"stateMutability": "view",
					"type": "function"
				},
				{
					"inputs": [],
					"name": "getVersion",
					"outputs": [
						{
							"internalType": "uint256",
							"name": "",
							"type": "uint256"
						}
					],
					"stateMutability": "view",
					"type": "function"
				},
				{
					"inputs": [],
					"name": "minimumUsd",
					"outputs": [
						{
							"internalType": "uint256",
							"name": "",
							"type": "uint256"
						}
					],
					"stateMutability": "view",
					"type": "function"
				}
			],
			"devdoc": {
				"kind": "dev",
				"methods": {},
				"version": 1
			},
			"evm": {
				"assembly": "    /* \"contracts/FundMe.sol\":171:1214  contract FundMe {... */\n  mstore(0x40, 0x80)\n    /* \"contracts/FundMe.sol\":222:226  5e18 */\n  0x4563918244f40000\n    /* \"contracts/FundMe.sol\":194:226  uint256 public minimumUsd = 5e18 */\n  0x00\n  sstore\n    /* \"contracts/FundMe.sol\":171:1214  contract FundMe {... */\n  callvalue\n  dup1\n  iszero\n  tag_1\n  jumpi\n  0x00\n  dup1\n  revert\ntag_1:\n  pop\n  dataSize(sub_0)\n  dup1\n  dataOffset(sub_0)\n  0x00\n  codecopy\n  0x00\n  return\nstop\n\nsub_0: assembly {\n        /* \"contracts/FundMe.sol\":171:1214  contract FundMe {... */\n      mstore(0x40, 0x80)\n      jumpi(tag_1, lt(calldatasize, 0x04))\n      shr(0xe0, calldataload(0x00))\n      dup1\n      0x098de820\n      eq\n      tag_2\n      jumpi\n      dup1\n      0x0d8e6e2c\n      eq\n      tag_3\n      jumpi\n      dup1\n      0x6e5b6b28\n      eq\n      tag_4\n      jumpi\n      dup1\n      0x98d5fdca\n      eq\n      tag_5\n      jumpi\n      dup1\n      0xb60d4288\n      eq\n      tag_6\n      jumpi\n    tag_1:\n      0x00\n      dup1\n      revert\n        /* \"contracts/FundMe.sol\":194:226  uint256 public minimumUsd = 5e18 */\n    tag_2:\n      callvalue\n      dup1\n      iszero\n      tag_7\n      jumpi\n      0x00\n      dup1\n      revert\n    tag_7:\n      pop\n      tag_8\n      tag_9\n      jump\t// in\n    tag_8:\n      mload(0x40)\n      tag_10\n      swap2\n      swap1\n      tag_11\n      jump\t// in\n    tag_10:\n      mload(0x40)\n      dup1\n      swap2\n      sub\n      swap1\n      return\n        /* \"contracts/FundMe.sol\":372:576  function getVersion() public view returns (uint256) {... */\n    tag_3:\n      callvalue\n      dup1\n      iszero\n      tag_12\n      jumpi\n      0x00\n      dup1\n      revert\n    tag_12:\n      pop\n      tag_13\n      tag_14\n      jump\t// in\n    tag_13:\n      mload(0x40)\n      tag_15\n      swap2\n      swap1\n      tag_11\n      jump\t// in\n    tag_15:\n      mload(0x40)\n      dup1\n      swap2\n      sub\n      swap1\n      return\n        /* \"contracts/FundMe.sol\":995:1212  function getConversionRate(uint256 ethAmount) public view returns (uint256){... */\n    tag_4:\n      callvalue\n      dup1\n      iszero\n      tag_16\n      jumpi\n      0x00\n      dup1\n      revert\n    tag_16:\n      pop\n      tag_17\n      0x04\n      dup1\n      calldatasize\n      sub\n      dup2\n      add\n      swap1\n      tag_18\n      swap2\n      swap1\n      tag_19\n      jump\t// in\n    tag_18:\n      tag_20\n      jump\t// in\n    tag_17:\n      mload(0x40)\n      tag_21\n      swap2\n      swap1\n      tag_11\n      jump\t// in\n    tag_21:\n      mload(0x40)\n      dup1\n      swap2\n      sub\n      swap1\n      return\n        /* \"contracts/FundMe.sol\":610:989  function getPrice() public view returns (uint256)  {... */\n    tag_5:\n      callvalue\n      dup1\n      iszero\n      tag_22\n      jumpi\n      0x00\n      dup1\n      revert\n    tag_22:\n      pop\n      tag_23\n      tag_24\n      jump\t// in\n    tag_23:\n      mload(0x40)\n      tag_25\n      swap2\n      swap1\n      tag_11\n      jump\t// in\n    tag_25:\n      mload(0x40)\n      dup1\n      swap2\n      sub\n      swap1\n      return\n        /* \"contracts/FundMe.sol\":232:367  function fund() public payable{... */\n    tag_6:\n      tag_26\n      tag_27\n      jump\t// in\n    tag_26:\n      stop\n        /* \"contracts/FundMe.sol\":194:226  uint256 public minimumUsd = 5e18 */\n    tag_9:\n      sload(0x00)\n      dup2\n      jump\t// out\n        /* \"contracts/FundMe.sol\":372:576  function getVersion() public view returns (uint256) {... */\n    tag_14:\n        /* \"contracts/FundMe.sol\":415:422  uint256 */\n      0x00\n        /* \"contracts/FundMe.sol\":434:465  AggregatorV3Interface priceFeed */\n      dup1\n        /* \"contracts/FundMe.sol\":490:532  0x694AA1769357215DE4FAC081bf1f309aDC325306 */\n      0x694aa1769357215de4fac081bf1f309adc325306\n        /* \"contracts/FundMe.sol\":434:533  AggregatorV3Interface priceFeed = AggregatorV3Interface(0x694AA1769357215DE4FAC081bf1f309aDC325306) */\n      swap1\n      pop\n        /* \"contracts/FundMe.sol\":550:559  priceFeed */\n      dup1\n        /* \"contracts/FundMe.sol\":550:567  priceFeed.version */\n      0xffffffffffffffffffffffffffffffffffffffff\n      and\n      0x54fd4d50\n        /* \"contracts/FundMe.sol\":550:569  priceFeed.version() */\n      mload(0x40)\n      dup2\n      0xffffffff\n      and\n      0xe0\n      shl\n      dup2\n      mstore\n      0x04\n      add\n      0x20\n      mload(0x40)\n      dup1\n      dup4\n      sub\n      dup2\n      dup7\n      gas\n      staticcall\n      iszero\n      dup1\n      iszero\n      tag_30\n      jumpi\n      returndatasize\n      0x00\n      dup1\n      returndatacopy\n      revert(0x00, returndatasize)\n    tag_30:\n      pop\n      pop\n      pop\n      pop\n      mload(0x40)\n      returndatasize\n      not(0x1f)\n      0x1f\n      dup3\n      add\n      and\n      dup3\n      add\n      dup1\n      0x40\n      mstore\n      pop\n      dup2\n      add\n      swap1\n      tag_31\n      swap2\n      swap1\n      tag_32\n      jump\t// in\n    tag_31:\n        /* \"contracts/FundMe.sol\":543:569  return priceFeed.version() */\n      swap2\n      pop\n      pop\n        /* \"contracts/FundMe.sol\":372:576  function getVersion() public view returns (uint256) {... */\n      swap1\n      jump\t// out\n        /* \"contracts/FundMe.sol\":995:1212  function getConversionRate(uint256 ethAmount) public view returns (uint256){... */\n    tag_20:\n        /* \"contracts/FundMe.sol\":1062:1069  uint256 */\n      0x00\n        /* \"contracts/FundMe.sol\":1080:1096  uint256 ethPrice */\n      dup1\n        /* \"contracts/FundMe.sol\":1099:1109  getPrice() */\n      tag_34\n        /* \"contracts/FundMe.sol\":1099:1107  getPrice */\n      tag_24\n        /* \"contracts/FundMe.sol\":1099:1109  getPrice() */\n      jump\t// in\n    tag_34:\n        /* \"contracts/FundMe.sol\":1080:1109  uint256 ethPrice = getPrice() */\n      swap1\n      pop\n        /* \"contracts/FundMe.sol\":1119:1141  uint256 ethAmountInUsd */\n      0x00\n        /* \"contracts/FundMe.sol\":1169:1173  1e18 */\n      0x0de0b6b3a7640000\n        /* \"contracts/FundMe.sol\":1156:1165  ethAmount */\n      dup5\n        /* \"contracts/FundMe.sol\":1145:1153  ethPrice */\n      dup4\n        /* \"contracts/FundMe.sol\":1145:1165  ethPrice * ethAmount */\n      tag_35\n      swap2\n      swap1\n      tag_36\n      jump\t// in\n    tag_35:\n        /* \"contracts/FundMe.sol\":1144:1173  (ethPrice * ethAmount) / 1e18 */\n      tag_37\n      swap2\n      swap1\n      tag_38\n      jump\t// in\n    tag_37:\n        /* \"contracts/FundMe.sol\":1119:1173  uint256 ethAmountInUsd = (ethPrice * ethAmount) / 1e18 */\n      swap1\n      pop\n        /* \"contracts/FundMe.sol\":1190:1204  ethAmountInUsd */\n      dup1\n        /* \"contracts/FundMe.sol\":1183:1204  return ethAmountInUsd */\n      swap3\n      pop\n      pop\n      pop\n        /* \"contracts/FundMe.sol\":995:1212  function getConversionRate(uint256 ethAmount) public view returns (uint256){... */\n      swap2\n      swap1\n      pop\n      jump\t// out\n        /* \"contracts/FundMe.sol\":610:989  function getPrice() public view returns (uint256)  {... */\n    tag_24:\n        /* \"contracts/FundMe.sol\":651:658  uint256 */\n      0x00\n        /* \"contracts/FundMe.sol\":733:764  AggregatorV3Interface priceFeed */\n      dup1\n        /* \"contracts/FundMe.sol\":789:831  0x694AA1769357215DE4FAC081bf1f309aDC325306 */\n      0x694aa1769357215de4fac081bf1f309adc325306\n        /* \"contracts/FundMe.sol\":733:832  AggregatorV3Interface priceFeed = AggregatorV3Interface(0x694AA1769357215DE4FAC081bf1f309aDC325306) */\n      swap1\n      pop\n        /* \"contracts/FundMe.sol\":844:856  int256 price */\n      0x00\n        /* \"contracts/FundMe.sol\":863:872  priceFeed */\n      dup2\n        /* \"contracts/FundMe.sol\":863:888  priceFeed.latestRoundData */\n      0xffffffffffffffffffffffffffffffffffffffff\n      and\n      0xfeaf968c\n        /* \"contracts/FundMe.sol\":863:890  priceFeed.latestRoundData() */\n      mload(0x40)\n      dup2\n      0xffffffff\n      and\n      0xe0\n      shl\n      dup2\n      mstore\n      0x04\n      add\n      0xa0\n      mload(0x40)\n      dup1\n      dup4\n      sub\n      dup2\n      dup7\n      gas\n      staticcall\n      iszero\n      dup1\n      iszero\n      tag_41\n      jumpi\n      returndatasize\n      0x00\n      dup1\n      returndatacopy\n      revert(0x00, returndatasize)\n    tag_41:\n      pop\n      pop\n      pop\n      pop\n      mload(0x40)\n      returndatasize\n      not(0x1f)\n      0x1f\n      dup3\n      add\n      and\n      dup3\n      add\n      dup1\n      0x40\n      mstore\n      pop\n      dup2\n      add\n      swap1\n      tag_42\n      swap2\n      swap1\n      tag_43\n      jump\t// in\n    tag_42:\n        /* \"contracts/FundMe.sol\":842:890  (,int256 price,,,) = priceFeed.latestRoundData() */\n      pop\n      pop\n      pop\n      swap2\n      pop\n      pop\n        /* \"contracts/FundMe.sol\":917:918  0 */\n      0x00\n        /* \"contracts/FundMe.sol\":909:914  price */\n      dup2\n        /* \"contracts/FundMe.sol\":909:918  price > 0 */\n      sgt\n        /* \"contracts/FundMe.sol\":900:944  require (price > 0, \"price should be valid\") */\n      tag_44\n      jumpi\n      mload(0x40)\n      0x08c379a000000000000000000000000000000000000000000000000000000000\n      dup2\n      mstore\n      0x04\n      add\n      tag_45\n      swap1\n      tag_46\n      jump\t// in\n    tag_45:\n      mload(0x40)\n      dup1\n      swap2\n      sub\n      swap1\n      revert\n    tag_44:\n        /* \"contracts/FundMe.sol\":977:981  1e10 */\n      0x02540be400\n        /* \"contracts/FundMe.sol\":969:974  price */\n      dup2\n        /* \"contracts/FundMe.sol\":969:981  price * 1e10 */\n      tag_47\n      swap2\n      swap1\n      tag_48\n      jump\t// in\n    tag_47:\n        /* \"contracts/FundMe.sol\":954:982  return uint256(price * 1e10) */\n      swap3\n      pop\n      pop\n      pop\n        /* \"contracts/FundMe.sol\":610:989  function getPrice() public view returns (uint256)  {... */\n      swap1\n      jump\t// out\n        /* \"contracts/FundMe.sol\":232:367  function fund() public payable{... */\n    tag_27:\n        /* \"contracts/FundMe.sol\":321:331  minimumUsd */\n      sload(0x00)\n        /* \"contracts/FundMe.sol\":289:317  getConversionRate(msg.value) */\n      tag_50\n        /* \"contracts/FundMe.sol\":307:316  msg.value */\n      callvalue\n        /* \"contracts/FundMe.sol\":289:306  getConversionRate */\n      tag_20\n        /* \"contracts/FundMe.sol\":289:317  getConversionRate(msg.value) */\n      jump\t// in\n    tag_50:\n        /* \"contracts/FundMe.sol\":289:331  getConversionRate(msg.value) >= minimumUsd */\n      lt\n      iszero\n        /* \"contracts/FundMe.sol\":281:358  require(getConversionRate(msg.value) >= minimumUsd, \"didn't send enough eth\") */\n      tag_51\n      jumpi\n      mload(0x40)\n      0x08c379a000000000000000000000000000000000000000000000000000000000\n      dup2\n      mstore\n      0x04\n      add\n      tag_52\n      swap1\n      tag_53\n      jump\t// in\n    tag_52:\n      mload(0x40)\n      dup1\n      swap2\n      sub\n      swap1\n      revert\n    tag_51:\n        /* \"contracts/FundMe.sol\":232:367  function fund() public payable{... */\n      jump\t// out\n        /* \"#utility.yul\":7:84   */\n    tag_54:\n        /* \"#utility.yul\":44:51   */\n      0x00\n        /* \"#utility.yul\":73:78   */\n      dup2\n        /* \"#utility.yul\":62:78   */\n      swap1\n      pop\n        /* \"#utility.yul\":7:84   */\n      swap2\n      swap1\n      pop\n      jump\t// out\n        /* \"#utility.yul\":90:208   */\n    tag_55:\n        /* \"#utility.yul\":177:201   */\n      tag_78\n        /* \"#utility.yul\":195:200   */\n      dup2\n        /* \"#utility.yul\":177:201   */\n      tag_54\n      jump\t// in\n    tag_78:\n        /* \"#utility.yul\":172:175   */\n      dup3\n        /* \"#utility.yul\":165:202   */\n      mstore\n        /* \"#utility.yul\":90:208   */\n      pop\n      pop\n      jump\t// out\n        /* \"#utility.yul\":214:436   */\n    tag_11:\n        /* \"#utility.yul\":307:311   */\n      0x00\n        /* \"#utility.yul\":345:347   */\n      0x20\n        /* \"#utility.yul\":334:343   */\n      dup3\n        /* \"#utility.yul\":330:348   */\n      add\n        /* \"#utility.yul\":322:348   */\n      swap1\n      pop\n        /* \"#utility.yul\":358:429   */\n      tag_80\n        /* \"#utility.yul\":426:427   */\n      0x00\n        /* \"#utility.yul\":415:424   */\n      dup4\n        /* \"#utility.yul\":411:428   */\n      add\n        /* \"#utility.yul\":402:408   */\n      dup5\n        /* \"#utility.yul\":358:429   */\n      tag_55\n      jump\t// in\n    tag_80:\n        /* \"#utility.yul\":214:436   */\n      swap3\n      swap2\n      pop\n      pop\n      jump\t// out\n        /* \"#utility.yul\":523:640   */\n    tag_57:\n        /* \"#utility.yul\":632:633   */\n      0x00\n        /* \"#utility.yul\":629:630   */\n      dup1\n        /* \"#utility.yul\":622:634   */\n      revert\n        /* \"#utility.yul\":769:891   */\n    tag_59:\n        /* \"#utility.yul\":842:866   */\n      tag_85\n        /* \"#utility.yul\":860:865   */\n      dup2\n        /* \"#utility.yul\":842:866   */\n      tag_54\n      jump\t// in\n    tag_85:\n        /* \"#utility.yul\":835:840   */\n      dup2\n        /* \"#utility.yul\":832:867   */\n      eq\n        /* \"#utility.yul\":822:885   */\n      tag_86\n      jumpi\n        /* \"#utility.yul\":881:882   */\n      0x00\n        /* \"#utility.yul\":878:879   */\n      dup1\n        /* \"#utility.yul\":871:883   */\n      revert\n        /* \"#utility.yul\":822:885   */\n    tag_86:\n        /* \"#utility.yul\":769:891   */\n      pop\n      jump\t// out\n        /* \"#utility.yul\":897:1036   */\n    tag_60:\n        /* \"#utility.yul\":943:948   */\n      0x00\n        /* \"#utility.yul\":981:987   */\n      dup2\n        /* \"#utility.yul\":968:988   */\n      calldataload\n        /* \"#utility.yul\":959:988   */\n      swap1\n      pop\n        /* \"#utility.yul\":997:1030   */\n      tag_88\n        /* \"#utility.yul\":1024:1029   */\n      dup2\n        /* \"#utility.yul\":997:1030   */\n      tag_59\n      jump\t// in\n    tag_88:\n        /* \"#utility.yul\":897:1036   */\n      swap3\n      swap2\n      pop\n      pop\n      jump\t// out\n        /* \"#utility.yul\":1042:1371   */\n    tag_19:\n        /* \"#utility.yul\":1101:1107   */\n      0x00\n        /* \"#utility.yul\":1150:1152   */\n      0x20\n        /* \"#utility.yul\":1138:1147   */\n      dup3\n        /* \"#utility.yul\":1129:1136   */\n      dup5\n        /* \"#utility.yul\":1125:1148   */\n      sub\n        /* \"#utility.yul\":1121:1153   */\n      slt\n        /* \"#utility.yul\":1118:1237   */\n      iszero\n      tag_90\n      jumpi\n        /* \"#utility.yul\":1156:1235   */\n      tag_91\n      tag_57\n      jump\t// in\n    tag_91:\n        /* \"#utility.yul\":1118:1237   */\n    tag_90:\n        /* \"#utility.yul\":1276:1277   */\n      0x00\n        /* \"#utility.yul\":1301:1354   */\n      tag_92\n        /* \"#utility.yul\":1346:1353   */\n      dup5\n        /* \"#utility.yul\":1337:1343   */\n      dup3\n        /* \"#utility.yul\":1326:1335   */\n      dup6\n        /* \"#utility.yul\":1322:1344   */\n      add\n        /* \"#utility.yul\":1301:1354   */\n      tag_60\n      jump\t// in\n    tag_92:\n        /* \"#utility.yul\":1291:1354   */\n      swap2\n      pop\n        /* \"#utility.yul\":1247:1364   */\n      pop\n        /* \"#utility.yul\":1042:1371   */\n      swap3\n      swap2\n      pop\n      pop\n      jump\t// out\n        /* \"#utility.yul\":1377:1520   */\n    tag_61:\n        /* \"#utility.yul\":1434:1439   */\n      0x00\n        /* \"#utility.yul\":1465:1471   */\n      dup2\n        /* \"#utility.yul\":1459:1472   */\n      mload\n        /* \"#utility.yul\":1450:1472   */\n      swap1\n      pop\n        /* \"#utility.yul\":1481:1514   */\n      tag_94\n        /* \"#utility.yul\":1508:1513   */\n      dup2\n        /* \"#utility.yul\":1481:1514   */\n      tag_59\n      jump\t// in\n    tag_94:\n        /* \"#utility.yul\":1377:1520   */\n      swap3\n      swap2\n      pop\n      pop\n      jump\t// out\n        /* \"#utility.yul\":1526:1877   */\n    tag_32:\n        /* \"#utility.yul\":1596:1602   */\n      0x00\n        /* \"#utility.yul\":1645:1647   */\n      0x20\n        /* \"#utility.yul\":1633:1642   */\n      dup3\n        /* \"#utility.yul\":1624:1631   */\n      dup5\n        /* \"#utility.yul\":1620:1643   */\n      sub\n        /* \"#utility.yul\":1616:1648   */\n      slt\n        /* \"#utility.yul\":1613:1732   */\n      iszero\n      tag_96\n      jumpi\n        /* \"#utility.yul\":1651:1730   */\n      tag_97\n      tag_57\n      jump\t// in\n    tag_97:\n        /* \"#utility.yul\":1613:1732   */\n    tag_96:\n        /* \"#utility.yul\":1771:1772   */\n      0x00\n        /* \"#utility.yul\":1796:1860   */\n      tag_98\n        /* \"#utility.yul\":1852:1859   */\n      dup5\n        /* \"#utility.yul\":1843:1849   */\n      dup3\n        /* \"#utility.yul\":1832:1841   */\n      dup6\n        /* \"#utility.yul\":1828:1850   */\n      add\n        /* \"#utility.yul\":1796:1860   */\n      tag_61\n      jump\t// in\n    tag_98:\n        /* \"#utility.yul\":1786:1860   */\n      swap2\n      pop\n        /* \"#utility.yul\":1742:1870   */\n      pop\n        /* \"#utility.yul\":1526:1877   */\n      swap3\n      swap2\n      pop\n      pop\n      jump\t// out\n        /* \"#utility.yul\":1883:2063   */\n    tag_62:\n        /* \"#utility.yul\":1931:2008   */\n      0x4e487b7100000000000000000000000000000000000000000000000000000000\n        /* \"#utility.yul\":1928:1929   */\n      0x00\n        /* \"#utility.yul\":1921:2009   */\n      mstore\n        /* \"#utility.yul\":2028:2032   */\n      0x11\n        /* \"#utility.yul\":2025:2026   */\n      0x04\n        /* \"#utility.yul\":2018:2033   */\n      mstore\n        /* \"#utility.yul\":2052:2056   */\n      0x24\n        /* \"#utility.yul\":2049:2050   */\n      0x00\n        /* \"#utility.yul\":2042:2057   */\n      revert\n        /* \"#utility.yul\":2069:2479   */\n    tag_36:\n        /* \"#utility.yul\":2109:2116   */\n      0x00\n        /* \"#utility.yul\":2132:2152   */\n      tag_101\n        /* \"#utility.yul\":2150:2151   */\n      dup3\n        /* \"#utility.yul\":2132:2152   */\n      tag_54\n      jump\t// in\n    tag_101:\n        /* \"#utility.yul\":2127:2152   */\n      swap2\n      pop\n        /* \"#utility.yul\":2166:2186   */\n      tag_102\n        /* \"#utility.yul\":2184:2185   */\n      dup4\n        /* \"#utility.yul\":2166:2186   */\n      tag_54\n      jump\t// in\n    tag_102:\n        /* \"#utility.yul\":2161:2186   */\n      swap3\n      pop\n        /* \"#utility.yul\":2221:2222   */\n      dup3\n        /* \"#utility.yul\":2218:2219   */\n      dup3\n        /* \"#utility.yul\":2214:2223   */\n      mul\n        /* \"#utility.yul\":2243:2273   */\n      tag_103\n        /* \"#utility.yul\":2261:2272   */\n      dup2\n        /* \"#utility.yul\":2243:2273   */\n      tag_54\n      jump\t// in\n    tag_103:\n        /* \"#utility.yul\":2232:2273   */\n      swap2\n      pop\n        /* \"#utility.yul\":2422:2423   */\n      dup3\n        /* \"#utility.yul\":2413:2420   */\n      dup3\n        /* \"#utility.yul\":2409:2424   */\n      div\n        /* \"#utility.yul\":2406:2407   */\n      dup5\n        /* \"#utility.yul\":2403:2425   */\n      eq\n        /* \"#utility.yul\":2383:2384   */\n      dup4\n        /* \"#utility.yul\":2376:2385   */\n      iszero\n        /* \"#utility.yul\":2356:2439   */\n      or\n        /* \"#utility.yul\":2333:2472   */\n      tag_104\n      jumpi\n        /* \"#utility.yul\":2452:2470   */\n      tag_105\n      tag_62\n      jump\t// in\n    tag_105:\n        /* \"#utility.yul\":2333:2472   */\n    tag_104:\n        /* \"#utility.yul\":2117:2479   */\n      pop\n        /* \"#utility.yul\":2069:2479   */\n      swap3\n      swap2\n      pop\n      pop\n      jump\t// out\n        /* \"#utility.yul\":2485:2665   */\n    tag_63:\n        /* \"#utility.yul\":2533:2610   */\n      0x4e487b7100000000000000000000000000000000000000000000000000000000\n        /* \"#utility.yul\":2530:2531   */\n      0x00\n        /* \"#utility.yul\":2523:2611   */\n      mstore\n        /* \"#utility.yul\":2630:2634   */\n      0x12\n        /* \"#utility.yul\":2627:2628   */\n      0x04\n        /* \"#utility.yul\":2620:2635   */\n      mstore\n        /* \"#utility.yul\":2654:2658   */\n      0x24\n        /* \"#utility.yul\":2651:2652   */\n      0x00\n        /* \"#utility.yul\":2644:2659   */\n      revert\n        /* \"#utility.yul\":2671:2856   */\n    tag_38:\n        /* \"#utility.yul\":2711:2712   */\n      0x00\n        /* \"#utility.yul\":2728:2748   */\n      tag_108\n        /* \"#utility.yul\":2746:2747   */\n      dup3\n        /* \"#utility.yul\":2728:2748   */\n      tag_54\n      jump\t// in\n    tag_108:\n        /* \"#utility.yul\":2723:2748   */\n      swap2\n      pop\n        /* \"#utility.yul\":2762:2782   */\n      tag_109\n        /* \"#utility.yul\":2780:2781   */\n      dup4\n        /* \"#utility.yul\":2762:2782   */\n      tag_54\n      jump\t// in\n    tag_109:\n        /* \"#utility.yul\":2757:2782   */\n      swap3\n      pop\n        /* \"#utility.yul\":2801:2802   */\n      dup3\n        /* \"#utility.yul\":2791:2826   */\n      tag_110\n      jumpi\n        /* \"#utility.yul\":2806:2824   */\n      tag_111\n      tag_63\n      jump\t// in\n    tag_111:\n        /* \"#utility.yul\":2791:2826   */\n    tag_110:\n        /* \"#utility.yul\":2848:2849   */\n      dup3\n        /* \"#utility.yul\":2845:2846   */\n      dup3\n        /* \"#utility.yul\":2841:2850   */\n      div\n        /* \"#utility.yul\":2836:2850   */\n      swap1\n      pop\n        /* \"#utility.yul\":2671:2856   */\n      swap3\n      swap2\n      pop\n      pop\n      jump\t// out\n        /* \"#utility.yul\":2862:2967   */\n    tag_64:\n        /* \"#utility.yul\":2898:2905   */\n      0x00\n        /* \"#utility.yul\":2938:2960   */\n      0xffffffffffffffffffff\n        /* \"#utility.yul\":2931:2936   */\n      dup3\n        /* \"#utility.yul\":2927:2961   */\n      and\n        /* \"#utility.yul\":2916:2961   */\n      swap1\n      pop\n        /* \"#utility.yul\":2862:2967   */\n      swap2\n      swap1\n      pop\n      jump\t// out\n        /* \"#utility.yul\":2973:3093   */\n    tag_65:\n        /* \"#utility.yul\":3045:3068   */\n      tag_114\n        /* \"#utility.yul\":3062:3067   */\n      dup2\n        /* \"#utility.yul\":3045:3068   */\n      tag_64\n      jump\t// in\n    tag_114:\n        /* \"#utility.yul\":3038:3043   */\n      dup2\n        /* \"#utility.yul\":3035:3069   */\n      eq\n        /* \"#utility.yul\":3025:3087   */\n      tag_115\n      jumpi\n        /* \"#utility.yul\":3083:3084   */\n      0x00\n        /* \"#utility.yul\":3080:3081   */\n      dup1\n        /* \"#utility.yul\":3073:3085   */\n      revert\n        /* \"#utility.yul\":3025:3087   */\n    tag_115:\n        /* \"#utility.yul\":2973:3093   */\n      pop\n      jump\t// out\n        /* \"#utility.yul\":3099:3240   */\n    tag_66:\n        /* \"#utility.yul\":3155:3160   */\n      0x00\n        /* \"#utility.yul\":3186:3192   */\n      dup2\n        /* \"#utility.yul\":3180:3193   */\n      mload\n        /* \"#utility.yul\":3171:3193   */\n      swap1\n      pop\n        /* \"#utility.yul\":3202:3234   */\n      tag_117\n        /* \"#utility.yul\":3228:3233   */\n      dup2\n        /* \"#utility.yul\":3202:3234   */\n      tag_65\n      jump\t// in\n    tag_117:\n        /* \"#utility.yul\":3099:3240   */\n      swap3\n      swap2\n      pop\n      pop\n      jump\t// out\n        /* \"#utility.yul\":3246:3322   */\n    tag_67:\n        /* \"#utility.yul\":3282:3289   */\n      0x00\n        /* \"#utility.yul\":3311:3316   */\n      dup2\n        /* \"#utility.yul\":3300:3316   */\n      swap1\n      pop\n        /* \"#utility.yul\":3246:3322   */\n      swap2\n      swap1\n      pop\n      jump\t// out\n        /* \"#utility.yul\":3328:3448   */\n    tag_68:\n        /* \"#utility.yul\":3400:3423   */\n      tag_120\n        /* \"#utility.yul\":3417:3422   */\n      dup2\n        /* \"#utility.yul\":3400:3423   */\n      tag_67\n      jump\t// in\n    tag_120:\n        /* \"#utility.yul\":3393:3398   */\n      dup2\n        /* \"#utility.yul\":3390:3424   */\n      eq\n        /* \"#utility.yul\":3380:3442   */\n      tag_121\n      jumpi\n        /* \"#utility.yul\":3438:3439   */\n      0x00\n        /* \"#utility.yul\":3435:3436   */\n      dup1\n        /* \"#utility.yul\":3428:3440   */\n      revert\n        /* \"#utility.yul\":3380:3442   */\n    tag_121:\n        /* \"#utility.yul\":3328:3448   */\n      pop\n      jump\t// out\n        /* \"#utility.yul\":3454:3595   */\n    tag_69:\n        /* \"#utility.yul\":3510:3515   */\n      0x00\n        /* \"#utility.yul\":3541:3547   */\n      dup2\n        /* \"#utility.yul\":3535:3548   */\n      mload\n        /* \"#utility.yul\":3526:3548   */\n      swap1\n      pop\n        /* \"#utility.yul\":3557:3589   */\n      tag_123\n        /* \"#utility.yul\":3583:3588   */\n      dup2\n        /* \"#utility.yul\":3557:3589   */\n      tag_68\n      jump\t// in\n    tag_123:\n        /* \"#utility.yul\":3454:3595   */\n      swap3\n      swap2\n      pop\n      pop\n      jump\t// out\n        /* \"#utility.yul\":3601:4572   */\n    tag_43:\n        /* \"#utility.yul\":3704:3710   */\n      0x00\n        /* \"#utility.yul\":3712:3718   */\n      dup1\n        /* \"#utility.yul\":3720:3726   */\n      0x00\n        /* \"#utility.yul\":3728:3734   */\n      dup1\n        /* \"#utility.yul\":3736:3742   */\n      0x00\n        /* \"#utility.yul\":3785:3788   */\n      0xa0\n        /* \"#utility.yul\":3773:3782   */\n      dup7\n        /* \"#utility.yul\":3764:3771   */\n      dup9\n        /* \"#utility.yul\":3760:3783   */\n      sub\n        /* \"#utility.yul\":3756:3789   */\n      slt\n        /* \"#utility.yul\":3753:3873   */\n      iszero\n      tag_125\n      jumpi\n        /* \"#utility.yul\":3792:3871   */\n      tag_126\n      tag_57\n      jump\t// in\n    tag_126:\n        /* \"#utility.yul\":3753:3873   */\n    tag_125:\n        /* \"#utility.yul\":3912:3913   */\n      0x00\n        /* \"#utility.yul\":3937:4000   */\n      tag_127\n        /* \"#utility.yul\":3992:3999   */\n      dup9\n        /* \"#utility.yul\":3983:3989   */\n      dup3\n        /* \"#utility.yul\":3972:3981   */\n      dup10\n        /* \"#utility.yul\":3968:3990   */\n      add\n        /* \"#utility.yul\":3937:4000   */\n      tag_66\n      jump\t// in\n    tag_127:\n        /* \"#utility.yul\":3927:4000   */\n      swap6\n      pop\n        /* \"#utility.yul\":3883:4010   */\n      pop\n        /* \"#utility.yul\":4049:4051   */\n      0x20\n        /* \"#utility.yul\":4075:4138   */\n      tag_128\n        /* \"#utility.yul\":4130:4137   */\n      dup9\n        /* \"#utility.yul\":4121:4127   */\n      dup3\n        /* \"#utility.yul\":4110:4119   */\n      dup10\n        /* \"#utility.yul\":4106:4128   */\n      add\n        /* \"#utility.yul\":4075:4138   */\n      tag_69\n      jump\t// in\n    tag_128:\n        /* \"#utility.yul\":4065:4138   */\n      swap5\n      pop\n        /* \"#utility.yul\":4020:4148   */\n      pop\n        /* \"#utility.yul\":4187:4189   */\n      0x40\n        /* \"#utility.yul\":4213:4277   */\n      tag_129\n        /* \"#utility.yul\":4269:4276   */\n      dup9\n        /* \"#utility.yul\":4260:4266   */\n      dup3\n        /* \"#utility.yul\":4249:4258   */\n      dup10\n        /* \"#utility.yul\":4245:4267   */\n      add\n        /* \"#utility.yul\":4213:4277   */\n      tag_61\n      jump\t// in\n    tag_129:\n        /* \"#utility.yul\":4203:4277   */\n      swap4\n      pop\n        /* \"#utility.yul\":4158:4287   */\n      pop\n        /* \"#utility.yul\":4326:4328   */\n      0x60\n        /* \"#utility.yul\":4352:4416   */\n      tag_130\n        /* \"#utility.yul\":4408:4415   */\n      dup9\n        /* \"#utility.yul\":4399:4405   */\n      dup3\n        /* \"#utility.yul\":4388:4397   */\n      dup10\n        /* \"#utility.yul\":4384:4406   */\n      add\n        /* \"#utility.yul\":4352:4416   */\n      tag_61\n      jump\t// in\n    tag_130:\n        /* \"#utility.yul\":4342:4416   */\n      swap3\n      pop\n        /* \"#utility.yul\":4297:4426   */\n      pop\n        /* \"#utility.yul\":4465:4468   */\n      0x80\n        /* \"#utility.yul\":4492:4555   */\n      tag_131\n        /* \"#utility.yul\":4547:4554   */\n      dup9\n        /* \"#utility.yul\":4538:4544   */\n      dup3\n        /* \"#utility.yul\":4527:4536   */\n      dup10\n        /* \"#utility.yul\":4523:4545   */\n      add\n        /* \"#utility.yul\":4492:4555   */\n      tag_66\n      jump\t// in\n    tag_131:\n        /* \"#utility.yul\":4482:4555   */\n      swap2\n      pop\n        /* \"#utility.yul\":4436:4565   */\n      pop\n        /* \"#utility.yul\":3601:4572   */\n      swap3\n      swap6\n      pop\n      swap3\n      swap6\n      swap1\n      swap4\n      pop\n      jump\t// out\n        /* \"#utility.yul\":4578:4747   */\n    tag_70:\n        /* \"#utility.yul\":4662:4673   */\n      0x00\n        /* \"#utility.yul\":4696:4702   */\n      dup3\n        /* \"#utility.yul\":4691:4694   */\n      dup3\n        /* \"#utility.yul\":4684:4703   */\n      mstore\n        /* \"#utility.yul\":4736:4740   */\n      0x20\n        /* \"#utility.yul\":4731:4734   */\n      dup3\n        /* \"#utility.yul\":4727:4741   */\n      add\n        /* \"#utility.yul\":4712:4741   */\n      swap1\n      pop\n        /* \"#utility.yul\":4578:4747   */\n      swap3\n      swap2\n      pop\n      pop\n      jump\t// out\n        /* \"#utility.yul\":4753:4924   */\n    tag_71:\n        /* \"#utility.yul\":4893:4916   */\n      0x70726963652073686f756c642062652076616c69640000000000000000000000\n        /* \"#utility.yul\":4889:4890   */\n      0x00\n        /* \"#utility.yul\":4881:4887   */\n      dup3\n        /* \"#utility.yul\":4877:4891   */\n      add\n        /* \"#utility.yul\":4870:4917   */\n      mstore\n        /* \"#utility.yul\":4753:4924   */\n      pop\n      jump\t// out\n        /* \"#utility.yul\":4930:5296   */\n    tag_72:\n        /* \"#utility.yul\":5072:5075   */\n      0x00\n        /* \"#utility.yul\":5093:5160   */\n      tag_135\n        /* \"#utility.yul\":5157:5159   */\n      0x15\n        /* \"#utility.yul\":5152:5155   */\n      dup4\n        /* \"#utility.yul\":5093:5160   */\n      tag_70\n      jump\t// in\n    tag_135:\n        /* \"#utility.yul\":5086:5160   */\n      swap2\n      pop\n        /* \"#utility.yul\":5169:5262   */\n      tag_136\n        /* \"#utility.yul\":5258:5261   */\n      dup3\n        /* \"#utility.yul\":5169:5262   */\n      tag_71\n      jump\t// in\n    tag_136:\n        /* \"#utility.yul\":5287:5289   */\n      0x20\n        /* \"#utility.yul\":5282:5285   */\n      dup3\n        /* \"#utility.yul\":5278:5290   */\n      add\n        /* \"#utility.yul\":5271:5290   */\n      swap1\n      pop\n        /* \"#utility.yul\":4930:5296   */\n      swap2\n      swap1\n      pop\n      jump\t// out\n        /* \"#utility.yul\":5302:5721   */\n    tag_46:\n        /* \"#utility.yul\":5468:5472   */\n      0x00\n        /* \"#utility.yul\":5506:5508   */\n      0x20\n        /* \"#utility.yul\":5495:5504   */\n      dup3\n        /* \"#utility.yul\":5491:5509   */\n      add\n        /* \"#utility.yul\":5483:5509   */\n      swap1\n      pop\n        /* \"#utility.yul\":5555:5564   */\n      dup2\n        /* \"#utility.yul\":5549:5553   */\n      dup2\n        /* \"#utility.yul\":5545:5565   */\n      sub\n        /* \"#utility.yul\":5541:5542   */\n      0x00\n        /* \"#utility.yul\":5530:5539   */\n      dup4\n        /* \"#utility.yul\":5526:5543   */\n      add\n        /* \"#utility.yul\":5519:5566   */\n      mstore\n        /* \"#utility.yul\":5583:5714   */\n      tag_138\n        /* \"#utility.yul\":5709:5713   */\n      dup2\n        /* \"#utility.yul\":5583:5714   */\n      tag_72\n      jump\t// in\n    tag_138:\n        /* \"#utility.yul\":5575:5714   */\n      swap1\n      pop\n        /* \"#utility.yul\":5302:5721   */\n      swap2\n      swap1\n      pop\n      jump\t// out\n        /* \"#utility.yul\":5727:6283   */\n    tag_48:\n        /* \"#utility.yul\":5766:5773   */\n      0x00\n        /* \"#utility.yul\":5789:5808   */\n      tag_140\n        /* \"#utility.yul\":5806:5807   */\n      dup3\n        /* \"#utility.yul\":5789:5808   */\n      tag_67\n      jump\t// in\n    tag_140:\n        /* \"#utility.yul\":5784:5808   */\n      swap2\n      pop\n        /* \"#utility.yul\":5822:5841   */\n      tag_141\n        /* \"#utility.yul\":5839:5840   */\n      dup4\n        /* \"#utility.yul\":5822:5841   */\n      tag_67\n      jump\t// in\n    tag_141:\n        /* \"#utility.yul\":5817:5841   */\n      swap3\n      pop\n        /* \"#utility.yul\":5876:5877   */\n      dup3\n        /* \"#utility.yul\":5873:5874   */\n      dup3\n        /* \"#utility.yul\":5869:5878   */\n      mul\n        /* \"#utility.yul\":5898:5927   */\n      tag_142\n        /* \"#utility.yul\":5915:5926   */\n      dup2\n        /* \"#utility.yul\":5898:5927   */\n      tag_67\n      jump\t// in\n    tag_142:\n        /* \"#utility.yul\":5887:5927   */\n      swap2\n      pop\n        /* \"#utility.yul\":5985:6051   */\n      0x8000000000000000000000000000000000000000000000000000000000000000\n        /* \"#utility.yul\":5982:5983   */\n      dup5\n        /* \"#utility.yul\":5979:6052   */\n      eq\n        /* \"#utility.yul\":5975:5976   */\n      0x00\n        /* \"#utility.yul\":5972:5973   */\n      dup5\n        /* \"#utility.yul\":5968:5977   */\n      slt\n        /* \"#utility.yul\":5964:6053   */\n      and\n        /* \"#utility.yul\":5961:6076   */\n      iszero\n      tag_143\n      jumpi\n        /* \"#utility.yul\":6056:6074   */\n      tag_144\n      tag_62\n      jump\t// in\n    tag_144:\n        /* \"#utility.yul\":5961:6076   */\n    tag_143:\n        /* \"#utility.yul\":6226:6227   */\n      dup3\n        /* \"#utility.yul\":6217:6224   */\n      dup3\n        /* \"#utility.yul\":6212:6228   */\n      sdiv\n        /* \"#utility.yul\":6209:6210   */\n      dup5\n        /* \"#utility.yul\":6206:6229   */\n      eq\n        /* \"#utility.yul\":6186:6187   */\n      dup4\n        /* \"#utility.yul\":6179:6188   */\n      iszero\n        /* \"#utility.yul\":6159:6243   */\n      or\n        /* \"#utility.yul\":6136:6276   */\n      tag_145\n      jumpi\n        /* \"#utility.yul\":6256:6274   */\n      tag_146\n      tag_62\n      jump\t// in\n    tag_146:\n        /* \"#utility.yul\":6136:6276   */\n    tag_145:\n        /* \"#utility.yul\":5774:6283   */\n      pop\n        /* \"#utility.yul\":5727:6283   */\n      swap3\n      swap2\n      pop\n      pop\n      jump\t// out\n        /* \"#utility.yul\":6289:6461   */\n    tag_73:\n        /* \"#utility.yul\":6429:6453   */\n      0x6469646e27742073656e6420656e6f7567682065746800000000000000000000\n        /* \"#utility.yul\":6425:6426   */\n      0x00\n        /* \"#utility.yul\":6417:6423   */\n      dup3\n        /* \"#utility.yul\":6413:6427   */\n      add\n        /* \"#utility.yul\":6406:6454   */\n      mstore\n        /* \"#utility.yul\":6289:6461   */\n      pop\n      jump\t// out\n        /* \"#utility.yul\":6467:6833   */\n    tag_74:\n        /* \"#utility.yul\":6609:6612   */\n      0x00\n        /* \"#utility.yul\":6630:6697   */\n      tag_149\n        /* \"#utility.yul\":6694:6696   */\n      0x16\n        /* \"#utility.yul\":6689:6692   */\n      dup4\n        /* \"#utility.yul\":6630:6697   */\n      tag_70\n      jump\t// in\n    tag_149:\n        /* \"#utility.yul\":6623:6697   */\n      swap2\n      pop\n        /* \"#utility.yul\":6706:6799   */\n      tag_150\n        /* \"#utility.yul\":6795:6798   */\n      dup3\n        /* \"#utility.yul\":6706:6799   */\n      tag_73\n      jump\t// in\n    tag_150:\n        /* \"#utility.yul\":6824:6826   */\n      0x20\n        /* \"#utility.yul\":6819:6822   */\n      dup3\n        /* \"#utility.yul\":6815:6827   */\n      add\n        /* \"#utility.yul\":6808:6827   */\n      swap1\n      pop\n        /* \"#utility.yul\":6467:6833   */\n      swap2\n      swap1\n      pop\n      jump\t// out\n        /* \"#utility.yul\":6839:7258   */\n    tag_53:\n        /* \"#utility.yul\":7005:7009   */\n      0x00\n        /* \"#utility.yul\":7043:7045   */\n      0x20\n        /* \"#utility.yul\":7032:7041   */\n      dup3\n        /* \"#utility.yul\":7028:7046   */\n      add\n        /* \"#utility.yul\":7020:7046   */\n      swap1\n      pop\n        /* \"#utility.yul\":7092:7101   */\n      dup2\n        /* \"#utility.yul\":7086:7090   */\n      dup2\n        /* \"#utility.yul\":7082:7102   */\n      sub\n        /* \"#utility.yul\":7078:7079   */\n      0x00\n        /* \"#utility.yul\":7067:7076   */\n      dup4\n        /* \"#utility.yul\":7063:7080   */\n      add\n        /* \"#utility.yul\":7056:7103   */\n      mstore\n        /* \"#utility.yul\":7120:7251   */\n      tag_152\n        /* \"#utility.yul\":7246:7250   */\n      dup2\n        /* \"#utility.yul\":7120:7251   */\n      tag_74\n      jump\t// in\n    tag_152:\n        /* \"#utility.yul\":7112:7251   */\n      swap1\n      pop\n        /* \"#utility.yul\":6839:7258   */\n      swap2\n      swap1\n      pop\n      jump\t// out\n\n    auxdata: 0xa2646970667358221220cc10d9e74f4870c3707aad0c8d2692c009bfd2eb081fc409f866453ef4a9d17864736f6c634300081a0033\n}\n",
				"bytecode": {
					"linkReferences": {},
					"object": "6080604052674563918244f400005f553480156019575f80fd5b50610718806100275f395ff3fe608060405260043610610049575f3560e01c8063098de8201461004d5780630d8e6e2c146100775780636e5b6b28146100a157806398d5fdca146100dd578063b60d428814610107575b5f80fd5b348015610058575f80fd5b50610061610111565b60405161006e9190610327565b60405180910390f35b348015610082575f80fd5b5061008b610116565b6040516100989190610327565b60405180910390f35b3480156100ac575f80fd5b506100c760048036038101906100c2919061036e565b6101a2565b6040516100d49190610327565b60405180910390f35b3480156100e8575f80fd5b506100f16101da565b6040516100fe9190610327565b60405180910390f35b61010f6102c1565b005b5f5481565b5f8073694aa1769357215de4fac081bf1f309adc32530690508073ffffffffffffffffffffffffffffffffffffffff166354fd4d506040518163ffffffff1660e01b8152600401602060405180830381865afa158015610178573d5f803e3d5ffd5b505050506040513d601f19601f8201168201806040525081019061019c91906103ad565b91505090565b5f806101ac6101da565b90505f670de0b6b3a764000084836101c49190610405565b6101ce9190610473565b90508092505050919050565b5f8073694aa1769357215de4fac081bf1f309adc32530690505f8173ffffffffffffffffffffffffffffffffffffffff1663feaf968c6040518163ffffffff1660e01b815260040160a060405180830381865afa15801561023d573d5f803e3d5ffd5b505050506040513d601f19601f820116820180604052508101906102619190610515565b5050509150505f81136102a9576040517f08c379a00000000000000000000000000000000000000000000000000000000081526004016102a0906105e6565b60405180910390fd5b6402540be400816102ba9190610604565b9250505090565b5f546102cc346101a2565b101561030d576040517f08c379a0000000000000000000000000000000000000000000000000000000008152600401610304906106c4565b60405180910390fd5b565b5f819050919050565b6103218161030f565b82525050565b5f60208201905061033a5f830184610318565b92915050565b5f80fd5b61034d8161030f565b8114610357575f80fd5b50565b5f8135905061036881610344565b92915050565b5f6020828403121561038357610382610340565b5b5f6103908482850161035a565b91505092915050565b5f815190506103a781610344565b92915050565b5f602082840312156103c2576103c1610340565b5b5f6103cf84828501610399565b91505092915050565b7f4e487b71000000000000000000000000000000000000000000000000000000005f52601160045260245ffd5b5f61040f8261030f565b915061041a8361030f565b92508282026104288161030f565b9150828204841483151761043f5761043e6103d8565b5b5092915050565b7f4e487b71000000000000000000000000000000000000000000000000000000005f52601260045260245ffd5b5f61047d8261030f565b91506104888361030f565b92508261049857610497610446565b5b828204905092915050565b5f69ffffffffffffffffffff82169050919050565b6104c1816104a3565b81146104cb575f80fd5b50565b5f815190506104dc816104b8565b92915050565b5f819050919050565b6104f4816104e2565b81146104fe575f80fd5b50565b5f8151905061050f816104eb565b92915050565b5f805f805f60a0868803121561052e5761052d610340565b5b5f61053b888289016104ce565b955050602061054c88828901610501565b945050604061055d88828901610399565b935050606061056e88828901610399565b925050608061057f888289016104ce565b9150509295509295909350565b5f82825260208201905092915050565b7f70726963652073686f756c642062652076616c696400000000000000000000005f82015250565b5f6105d060158361058c565b91506105db8261059c565b602082019050919050565b5f6020820190508181035f8301526105fd816105c4565b9050919050565b5f61060e826104e2565b9150610619836104e2565b9250828202610627816104e2565b91507f800000000000000000000000000000000000000000000000000000000000000084145f8412161561065e5761065d6103d8565b5b8282058414831517610673576106726103d8565b5b5092915050565b7f6469646e27742073656e6420656e6f75676820657468000000000000000000005f82015250565b5f6106ae60168361058c565b91506106b98261067a565b602082019050919050565b5f6020820190508181035f8301526106db816106a2565b905091905056fea2646970667358221220cc10d9e74f4870c3707aad0c8d2692c009bfd2eb081fc409f866453ef4a9d17864736f6c634300081a0033",
					"opcodes": "PUSH1 0x80 PUSH1 0x40 MSTORE PUSH8 0x4563918244F40000 PUSH0 SSTORE CALLVALUE DUP1 ISZERO PUSH1 0x19 JUMPI PUSH0 DUP1 REVERT JUMPDEST POP PUSH2 0x718 DUP1 PUSH2 0x27 PUSH0 CODECOPY PUSH0 RETURN INVALID PUSH1 0x80 PUSH1 0x40 MSTORE PUSH1 0x4 CALLDATASIZE LT PUSH2 0x49 JUMPI PUSH0 CALLDATALOAD PUSH1 0xE0 SHR DUP1 PUSH4 0x98DE820 EQ PUSH2 0x4D JUMPI DUP1 PUSH4 0xD8E6E2C EQ PUSH2 0x77 JUMPI DUP1 PUSH4 0x6E5B6B28 EQ PUSH2 0xA1 JUMPI DUP1 PUSH4 0x98D5FDCA EQ PUSH2 0xDD JUMPI DUP1 PUSH4 0xB60D4288 EQ PUSH2 0x107 JUMPI JUMPDEST PUSH0 DUP1 REVERT JUMPDEST CALLVALUE DUP1 ISZERO PUSH2 0x58 JUMPI PUSH0 DUP1 REVERT JUMPDEST POP PUSH2 0x61 PUSH2 0x111 JUMP JUMPDEST PUSH1 0x40 MLOAD PUSH2 0x6E SWAP2 SWAP1 PUSH2 0x327 JUMP JUMPDEST PUSH1 0x40 MLOAD DUP1 SWAP2 SUB SWAP1 RETURN JUMPDEST CALLVALUE DUP1 ISZERO PUSH2 0x82 JUMPI PUSH0 DUP1 REVERT JUMPDEST POP PUSH2 0x8B PUSH2 0x116 JUMP JUMPDEST PUSH1 0x40 MLOAD PUSH2 0x98 SWAP2 SWAP1 PUSH2 0x327 JUMP JUMPDEST PUSH1 0x40 MLOAD DUP1 SWAP2 SUB SWAP1 RETURN JUMPDEST CALLVALUE DUP1 ISZERO PUSH2 0xAC JUMPI PUSH0 DUP1 REVERT JUMPDEST POP PUSH2 0xC7 PUSH1 0x4 DUP1 CALLDATASIZE SUB DUP2 ADD SWAP1 PUSH2 0xC2 SWAP2 SWAP1 PUSH2 0x36E JUMP JUMPDEST PUSH2 0x1A2 JUMP JUMPDEST PUSH1 0x40 MLOAD PUSH2 0xD4 SWAP2 SWAP1 PUSH2 0x327 JUMP JUMPDEST PUSH1 0x40 MLOAD DUP1 SWAP2 SUB SWAP1 RETURN JUMPDEST CALLVALUE DUP1 ISZERO PUSH2 0xE8 JUMPI PUSH0 DUP1 REVERT JUMPDEST POP PUSH2 0xF1 PUSH2 0x1DA JUMP JUMPDEST PUSH1 0x40 MLOAD PUSH2 0xFE SWAP2 SWAP1 PUSH2 0x327 JUMP JUMPDEST PUSH1 0x40 MLOAD DUP1 SWAP2 SUB SWAP1 RETURN JUMPDEST PUSH2 0x10F PUSH2 0x2C1 JUMP JUMPDEST STOP JUMPDEST PUSH0 SLOAD DUP2 JUMP JUMPDEST PUSH0 DUP1 PUSH20 0x694AA1769357215DE4FAC081BF1F309ADC325306 SWAP1 POP DUP1 PUSH20 0xFFFFFFFFFFFFFFFFFFFFFFFFFFFFFFFFFFFFFFFF AND PUSH4 0x54FD4D50 PUSH1 0x40 MLOAD DUP2 PUSH4 0xFFFFFFFF AND PUSH1 0xE0 SHL DUP2 MSTORE PUSH1 0x4 ADD PUSH1 0x20 PUSH1 0x40 MLOAD DUP1 DUP4 SUB DUP2 DUP7 GAS STATICCALL ISZERO DUP1 ISZERO PUSH2 0x178 JUMPI RETURNDATASIZE PUSH0 DUP1 RETURNDATACOPY RETURNDATASIZE PUSH0 REVERT JUMPDEST POP POP POP POP PUSH1 0x40 MLOAD RETURNDATASIZE PUSH1 0x1F NOT PUSH1 0x1F DUP3 ADD AND DUP3 ADD DUP1 PUSH1 0x40 MSTORE POP DUP2 ADD SWAP1 PUSH2 0x19C SWAP2 SWAP1 PUSH2 0x3AD JUMP JUMPDEST SWAP2 POP POP SWAP1 JUMP JUMPDEST PUSH0 DUP1 PUSH2 0x1AC PUSH2 0x1DA JUMP JUMPDEST SWAP1 POP PUSH0 PUSH8 0xDE0B6B3A7640000 DUP5 DUP4 PUSH2 0x1C4 SWAP2 SWAP1 PUSH2 0x405 JUMP JUMPDEST PUSH2 0x1CE SWAP2 SWAP1 PUSH2 0x473 JUMP JUMPDEST SWAP1 POP DUP1 SWAP3 POP POP POP SWAP2 SWAP1 POP JUMP JUMPDEST PUSH0 DUP1 PUSH20 0x694AA1769357215DE4FAC081BF1F309ADC325306 SWAP1 POP PUSH0 DUP2 PUSH20 0xFFFFFFFFFFFFFFFFFFFFFFFFFFFFFFFFFFFFFFFF AND PUSH4 0xFEAF968C PUSH1 0x40 MLOAD DUP2 PUSH4 0xFFFFFFFF AND PUSH1 0xE0 SHL DUP2 MSTORE PUSH1 0x4 ADD PUSH1 0xA0 PUSH1 0x40 MLOAD DUP1 DUP4 SUB DUP2 DUP7 GAS STATICCALL ISZERO DUP1 ISZERO PUSH2 0x23D JUMPI RETURNDATASIZE PUSH0 DUP1 RETURNDATACOPY RETURNDATASIZE PUSH0 REVERT JUMPDEST POP POP POP POP PUSH1 0x40 MLOAD RETURNDATASIZE PUSH1 0x1F NOT PUSH1 0x1F DUP3 ADD AND DUP3 ADD DUP1 PUSH1 0x40 MSTORE POP DUP2 ADD SWAP1 PUSH2 0x261 SWAP2 SWAP1 PUSH2 0x515 JUMP JUMPDEST POP POP POP SWAP2 POP POP PUSH0 DUP2 SGT PUSH2 0x2A9 JUMPI PUSH1 0x40 MLOAD PUSH32 0x8C379A000000000000000000000000000000000000000000000000000000000 DUP2 MSTORE PUSH1 0x4 ADD PUSH2 0x2A0 SWAP1 PUSH2 0x5E6 JUMP JUMPDEST PUSH1 0x40 MLOAD DUP1 SWAP2 SUB SWAP1 REVERT JUMPDEST PUSH5 0x2540BE400 DUP2 PUSH2 0x2BA SWAP2 SWAP1 PUSH2 0x604 JUMP JUMPDEST SWAP3 POP POP POP SWAP1 JUMP JUMPDEST PUSH0 SLOAD PUSH2 0x2CC CALLVALUE PUSH2 0x1A2 JUMP JUMPDEST LT ISZERO PUSH2 0x30D JUMPI PUSH1 0x40 MLOAD PUSH32 0x8C379A000000000000000000000000000000000000000000000000000000000 DUP2 MSTORE PUSH1 0x4 ADD PUSH2 0x304 SWAP1 PUSH2 0x6C4 JUMP JUMPDEST PUSH1 0x40 MLOAD DUP1 SWAP2 SUB SWAP1 REVERT JUMPDEST JUMP JUMPDEST PUSH0 DUP2 SWAP1 POP SWAP2 SWAP1 POP JUMP JUMPDEST PUSH2 0x321 DUP2 PUSH2 0x30F JUMP JUMPDEST DUP3 MSTORE POP POP JUMP JUMPDEST PUSH0 PUSH1 0x20 DUP3 ADD SWAP1 POP PUSH2 0x33A PUSH0 DUP4 ADD DUP5 PUSH2 0x318 JUMP JUMPDEST SWAP3 SWAP2 POP POP JUMP JUMPDEST PUSH0 DUP1 REVERT JUMPDEST PUSH2 0x34D DUP2 PUSH2 0x30F JUMP JUMPDEST DUP2 EQ PUSH2 0x357 JUMPI PUSH0 DUP1 REVERT JUMPDEST POP JUMP JUMPDEST PUSH0 DUP2 CALLDATALOAD SWAP1 POP PUSH2 0x368 DUP2 PUSH2 0x344 JUMP JUMPDEST SWAP3 SWAP2 POP POP JUMP JUMPDEST PUSH0 PUSH1 0x20 DUP3 DUP5 SUB SLT ISZERO PUSH2 0x383 JUMPI PUSH2 0x382 PUSH2 0x340 JUMP JUMPDEST JUMPDEST PUSH0 PUSH2 0x390 DUP5 DUP3 DUP6 ADD PUSH2 0x35A JUMP JUMPDEST SWAP2 POP POP SWAP3 SWAP2 POP POP JUMP JUMPDEST PUSH0 DUP2 MLOAD SWAP1 POP PUSH2 0x3A7 DUP2 PUSH2 0x344 JUMP JUMPDEST SWAP3 SWAP2 POP POP JUMP JUMPDEST PUSH0 PUSH1 0x20 DUP3 DUP5 SUB SLT ISZERO PUSH2 0x3C2 JUMPI PUSH2 0x3C1 PUSH2 0x340 JUMP JUMPDEST JUMPDEST PUSH0 PUSH2 0x3CF DUP5 DUP3 DUP6 ADD PUSH2 0x399 JUMP JUMPDEST SWAP2 POP POP SWAP3 SWAP2 POP POP JUMP JUMPDEST PUSH32 0x4E487B7100000000000000000000000000000000000000000000000000000000 PUSH0 MSTORE PUSH1 0x11 PUSH1 0x4 MSTORE PUSH1 0x24 PUSH0 REVERT JUMPDEST PUSH0 PUSH2 0x40F DUP3 PUSH2 0x30F JUMP JUMPDEST SWAP2 POP PUSH2 0x41A DUP4 PUSH2 0x30F JUMP JUMPDEST SWAP3 POP DUP3 DUP3 MUL PUSH2 0x428 DUP2 PUSH2 0x30F JUMP JUMPDEST SWAP2 POP DUP3 DUP3 DIV DUP5 EQ DUP4 ISZERO OR PUSH2 0x43F JUMPI PUSH2 0x43E PUSH2 0x3D8 JUMP JUMPDEST JUMPDEST POP SWAP3 SWAP2 POP POP JUMP JUMPDEST PUSH32 0x4E487B7100000000000000000000000000000000000000000000000000000000 PUSH0 MSTORE PUSH1 0x12 PUSH1 0x4 MSTORE PUSH1 0x24 PUSH0 REVERT JUMPDEST PUSH0 PUSH2 0x47D DUP3 PUSH2 0x30F JUMP JUMPDEST SWAP2 POP PUSH2 0x488 DUP4 PUSH2 0x30F JUMP JUMPDEST SWAP3 POP DUP3 PUSH2 0x498 JUMPI PUSH2 0x497 PUSH2 0x446 JUMP JUMPDEST JUMPDEST DUP3 DUP3 DIV SWAP1 POP SWAP3 SWAP2 POP POP JUMP JUMPDEST PUSH0 PUSH10 0xFFFFFFFFFFFFFFFFFFFF DUP3 AND SWAP1 POP SWAP2 SWAP1 POP JUMP JUMPDEST PUSH2 0x4C1 DUP2 PUSH2 0x4A3 JUMP JUMPDEST DUP2 EQ PUSH2 0x4CB JUMPI PUSH0 DUP1 REVERT JUMPDEST POP JUMP JUMPDEST PUSH0 DUP2 MLOAD SWAP1 POP PUSH2 0x4DC DUP2 PUSH2 0x4B8 JUMP JUMPDEST SWAP3 SWAP2 POP POP JUMP JUMPDEST PUSH0 DUP2 SWAP1 POP SWAP2 SWAP1 POP JUMP JUMPDEST PUSH2 0x4F4 DUP2 PUSH2 0x4E2 JUMP JUMPDEST DUP2 EQ PUSH2 0x4FE JUMPI PUSH0 DUP1 REVERT JUMPDEST POP JUMP JUMPDEST PUSH0 DUP2 MLOAD SWAP1 POP PUSH2 0x50F DUP2 PUSH2 0x4EB JUMP JUMPDEST SWAP3 SWAP2 POP POP JUMP JUMPDEST PUSH0 DUP1 PUSH0 DUP1 PUSH0 PUSH1 0xA0 DUP7 DUP9 SUB SLT ISZERO PUSH2 0x52E JUMPI PUSH2 0x52D PUSH2 0x340 JUMP JUMPDEST JUMPDEST PUSH0 PUSH2 0x53B DUP9 DUP3 DUP10 ADD PUSH2 0x4CE JUMP JUMPDEST SWAP6 POP POP PUSH1 0x20 PUSH2 0x54C DUP9 DUP3 DUP10 ADD PUSH2 0x501 JUMP JUMPDEST SWAP5 POP POP PUSH1 0x40 PUSH2 0x55D DUP9 DUP3 DUP10 ADD PUSH2 0x399 JUMP JUMPDEST SWAP4 POP POP PUSH1 0x60 PUSH2 0x56E DUP9 DUP3 DUP10 ADD PUSH2 0x399 JUMP JUMPDEST SWAP3 POP POP PUSH1 0x80 PUSH2 0x57F DUP9 DUP3 DUP10 ADD PUSH2 0x4CE JUMP JUMPDEST SWAP2 POP POP SWAP3 SWAP6 POP SWAP3 SWAP6 SWAP1 SWAP4 POP JUMP JUMPDEST PUSH0 DUP3 DUP3 MSTORE PUSH1 0x20 DUP3 ADD SWAP1 POP SWAP3 SWAP2 POP POP JUMP JUMPDEST PUSH32 0x70726963652073686F756C642062652076616C69640000000000000000000000 PUSH0 DUP3 ADD MSTORE POP JUMP JUMPDEST PUSH0 PUSH2 0x5D0 PUSH1 0x15 DUP4 PUSH2 0x58C JUMP JUMPDEST SWAP2 POP PUSH2 0x5DB DUP3 PUSH2 0x59C JUMP JUMPDEST PUSH1 0x20 DUP3 ADD SWAP1 POP SWAP2 SWAP1 POP JUMP JUMPDEST PUSH0 PUSH1 0x20 DUP3 ADD SWAP1 POP DUP2 DUP2 SUB PUSH0 DUP4 ADD MSTORE PUSH2 0x5FD DUP2 PUSH2 0x5C4 JUMP JUMPDEST SWAP1 POP SWAP2 SWAP1 POP JUMP JUMPDEST PUSH0 PUSH2 0x60E DUP3 PUSH2 0x4E2 JUMP JUMPDEST SWAP2 POP PUSH2 0x619 DUP4 PUSH2 0x4E2 JUMP JUMPDEST SWAP3 POP DUP3 DUP3 MUL PUSH2 0x627 DUP2 PUSH2 0x4E2 JUMP JUMPDEST SWAP2 POP PUSH32 0x8000000000000000000000000000000000000000000000000000000000000000 DUP5 EQ PUSH0 DUP5 SLT AND ISZERO PUSH2 0x65E JUMPI PUSH2 0x65D PUSH2 0x3D8 JUMP JUMPDEST JUMPDEST DUP3 DUP3 SDIV DUP5 EQ DUP4 ISZERO OR PUSH2 0x673 JUMPI PUSH2 0x672 PUSH2 0x3D8 JUMP JUMPDEST JUMPDEST POP SWAP3 SWAP2 POP POP JUMP JUMPDEST PUSH32 0x6469646E27742073656E6420656E6F7567682065746800000000000000000000 PUSH0 DUP3 ADD MSTORE POP JUMP JUMPDEST PUSH0 PUSH2 0x6AE PUSH1 0x16 DUP4 PUSH2 0x58C JUMP JUMPDEST SWAP2 POP PUSH2 0x6B9 DUP3 PUSH2 0x67A JUMP JUMPDEST PUSH1 0x20 DUP3 ADD SWAP1 POP SWAP2 SWAP1 POP JUMP JUMPDEST PUSH0 PUSH1 0x20 DUP3 ADD SWAP1 POP DUP2 DUP2 SUB PUSH0 DUP4 ADD MSTORE PUSH2 0x6DB DUP2 PUSH2 0x6A2 JUMP JUMPDEST SWAP1 POP SWAP2 SWAP1 POP JUMP INVALID LOG2 PUSH5 0x6970667358 0x22 SLT KECCAK256 0xCC LT 0xD9 0xE7 0x4F BASEFEE PUSH17 0xC3707AAD0C8D2692C009BFD2EB081FC409 0xF8 PUSH7 0x453EF4A9D17864 PUSH20 0x6F6C634300081A00330000000000000000000000 "
				},
				"gasEstimates": {
					"creation": {
						"codeDepositCost": "363200",
						"executionCost": "22502",
						"totalCost": "385702"
					},
					"external": {
						"fund()": "infinite",
						"getConversionRate(uint256)": "infinite",
						"getPrice()": "infinite",
						"getVersion()": "infinite",
						"minimumUsd()": "2402"
					}
				},
				"methodIdentifiers": {
					"fund()": "b60d4288",
					"getConversionRate(uint256)": "6e5b6b28",
					"getPrice()": "98d5fdca",
					"getVersion()": "0d8e6e2c",
					"minimumUsd()": "098de820"
				}
			},
			"storageLayout": {
				"storage": [
					{
						"astId": 52,
						"contract": "contracts/FundMe.sol:FundMe",
						"label": "minimumUsd",
						"offset": 0,
						"slot": "0",
						"type": "t_uint256"
					}
				],
				"types": {
					"t_uint256": {
						"encoding": "inplace",
						"label": "uint256",
						"numberOfBytes": "32"
					}
				}
			},
			"userdoc": {
				"kind": "user",
				"methods": {},
				"version": 1
			}
		}
	}
}